:100000000C948F000C94B7000C94B7000C94B700BC
:100010000C94B7000C94B7000C94B7000C94B70084
:100020000C94B7000C94B7000C94B7000C94B70074
:100030000C94B7000C94B7000C94B7000C94B70064
:100040000C9497060C94B7000C9465060C943F062C
:100050000C94B7000C94B7000C94B7000C94B70044
:100060000C94B7000C94B7000C9400000C940000A2
:100070000C9400000C9400004E414E494E495459D6
:10008000494E46CDCCCC3D0AD7233C17B7D1387763
:10009000CC2B329595E6241FB14F0A000020410079
:1000A00000C84200401C4620BCBE4CCA1B0E5AAEC3
:1000B000C59D740000000850020100000304070001
:1000C00000000000000000000000000000250028E3
:1000D000002B002E0000000000240027002A002D25
:1000E00000040404040404040402020202020203E1
:1000F00003030303030505050505050503010204C4
:100100000810204080010204081020010204081099
:1001100020020801041040204000E1066F0E112467
:100120001FBECFEFD8E0DEBFCDBF11E0A0E0B1E051
:10013000E6EDF8E202C005900D92A63BB107D9F7B3
:1001400022E0A6EBB1E001C01D92A63FB207E1F7A5
:1001500010E0CEE8D0E004C02197FE010E944E12CC
:10016000CD38D107C9F70E941F070C945E140C9478
:100170000000282F30E0F901E350FF4F44912F5148
:100180003F4FF90124918430D1F483E08093A000A3
:100190002223A1F0822F90E0880F991FFC01EB52DF
:1001A000FF4FA591B491FC01E753FF4F85919491C6
:1001B0008FB7F894EC914E2B4C938FBF08959AEE25
:1001C000980F923020F48FEF84BF84BFE1CF893144
:1001D000F9F68091F00082608EBB80E88093F00099
:1001E0008EB38093F000D4CFAF92BF92CF92DF92C4
:1001F000EF92FF920F931F93CF93DF936C017B01DC
:100200008B01040F151FEB015E01AE18BF08C0176C
:10021000D10759F06991D601ED91FC910190F081DF
:10022000E02DC6010995892B79F7C501DF91CF91A2
:100230001F910F91FF90EF90DF90CF90BF90AF9004
:100240000895FC01538D448D252F30E0842F90E0DC
:10025000821B930B541710F0CF96089501970895C1
:10026000FC01918D828D981761F0A28DAE0FBF2F8A
:10027000B11D5D968C91928D9F5F9F73928F90E0E0
:1002800008958FEF9FEF0895FC01918D828D98174F
:1002900031F0828DE80FF11D858D90E008958FEF8C
:1002A0009FEF0895FC01918D228D892F90E0805C55
:1002B0009F4F821B91098F739927089586E292E0E0
:1002C0000E94520121E0892B09F420E0822F089539
:1002D00080E090E0892B29F00E945E0181110C944E
:1002E00000000895FC01A48DA80FB92FB11DA35AD9
:1002F000BF4F2C91848D90E001968F739927848F46
:10030000A689B7892C93A089B1898C918370806468
:100310008C93938D848D981306C00288F389E02D09
:1003200080818F7D80830895EF92FF920F931F93BA
:10033000CF93DF93EC0181E0888F9B8D8C8D981398
:100340001AC0E889F989808185FF15C09FB7F894A4
:10035000EE89FF896083E889F989808183708064F0
:1003600080839FBF81E090E0DF91CF911F910F913B
:10037000FF90EF900895F62E0B8D10E00F5F1F4F4A
:100380000F731127E02E8C8D8E110CC00FB607FC59
:10039000FACFE889F989808185FFF5CFCE010E94E7
:1003A0007201F1CFEB8DEC0FFD2FF11DE35AFF4FE2
:1003B000F0829FB7F8940B8FEA89FB898081806275
:1003C000CFCFCF93DF93EC01888D8823B9F0AA8932
:1003D000BB89E889F9898C9185FD03C0808186FD00
:1003E0000DC00FB607FCF7CF8C9185FFF2CF80814F
:1003F00085FFEDCFCE010E947201E9CFDF91CF9151
:10040000089590E0FC01ED54FF4F2491FC01E3506E
:10041000FF4F34918F519F4FFC018491882361F1EC
:100420002223C9F021502B30B0F4E22FF0E0E55E3A
:10043000FD4F0C944E124102450226023D022B0252
:100440002B0248024E02520258025C029091800038
:100450009F7790938000E82FF0E0EE0FFF1FE753A7
:10046000FF4FA591B4918FB7F894EC91611128C01A
:1004700030953E233C938FBF0895909180009F7DDF
:10048000E8CF94B59F7794BDE6CF94B59F7DFBCF21
:100490009091B0009F779093B000DDCF9091B00025
:1004A0009F7DF9CF909190009F7790939000D3CF4C
:1004B000909190009F7DF9CF90919000977FF5CF1C
:1004C0003E2BD8CFCF93DF93EC018AE00E94B90096
:1004D000209731F460E08AE0DF91CF910C94010223
:1004E000EDEBF0E0E491E73009F442C0D0F4E23003
:1004F00081F148F4E13071F784B5806884BDC7BDEF
:10050000DF91CF910895E33049F1E43019F78091FC
:100510008000806280938000D0938B00C0938A001B
:10052000EFCFEA30A9F170F4E83051F1E93091F6FB
:1005300080919000806880939000D0939900C09340
:100540009800DECFEB3071F1E03521F6C093A100C9
:10055000D7CF84B5806284BDC8BDD2CF80918000E2
:10056000806880938000D0938900C0938800C8CFB2
:100570008091B00080688093B000C093B300C0CF7A
:100580008091B00080628093B000C093B400B8CF77
:1005900080919000806280939000D0939B00C093E4
:1005A0009A00AECF80919000886080939000D093A5
:1005B0009F00C0939E00A4CF3FB7F8948091BB01E9
:1005C0009091BC01A091BD01B091BE0126B5A89B40
:1005D00005C02F3F19F00196A11DB11D3FBFBA2FD5
:1005E000A92F982F8827BC01CD01620F711D811D95
:1005F000911D44E0660F771F881F991F4A95D1F718
:1006000008952FB7F8946091B7017091B801809167
:10061000B9019091BA012FBF08952F923F924F9246
:100620005F926F927F928F929F92AF92BF92CF9282
:10063000DF92EF92FF920F931F93CF93DF9300D03F
:1006400000D01F92CDB7DEB76B017C014D836DB634
:100650007EB68090E002E82DF0E05F0141E0A41A50
:10066000B1088DB79EB78E1B9F0B0FB6F8949EBF37
:100670000FBE8DBF0DB71EB70F5F1F4FEE0FFF1FD1
:10068000EE0FFF1FDF01A35CBE4F8D919D910D907A
:10069000BC91A02DC816D906EA06FB062CF1902FB6
:1006A000F80185E22E2F291B281508F474C09D81BE
:1006B000A91AB10897FDB39489EC92E0F80130E0F3
:1006C00020E0281508F087C0A191B0E0AA5EBE4FD7
:1006D0004C91A216B30609F47CC0DC0159964C93E8
:1006E0002F5F3F4F0196EDCFE75CFE4F4081518178
:1006F0006281738181E090E0A0E0B0E0841B950B03
:10070000A60BB70BC816D906EA06FB0644F2912CD5
:10071000F7FE0DC085E2D8018C93F094E094D0945C
:10072000C094C11CD11CE11CF11C99249394292D67
:1007300030E0C501821B930B880F991F880F991F0A
:10074000FC01EF5BFE4FFA83E983A801420F531FC0
:100750005C834B83981408F5A981BA815E904E9012
:100760003E902E90BA83A983C701B601A2019101E0
:100770000E941411EB81FC812193FC83EB83A22F57
:10078000B0E0A20191010E943311C61AD70AE80A0B
:10079000F90A9394DFCF819385CF8091CF028111A5
:1007A00086CF9501FD812F1B3109F7FD339544E27A
:1007B000E82FF0E0E217F3070CF079CFE00FF11F1C
:1007C0009081911103C040838F5FF2CF9A30E0F7A0
:1007D0006ECF406882CF0FB6F8947EBE0FBE6DBE5E
:1007E0000F900F900F900F900F90DF91CF911F916E
:1007F0000F91FF90EF90DF90CF90BF90AF909F90C0
:100800008F907F906F905F904F903F902F900895C2
:10081000BF92CF92DF92EF92FF920F931F93CF93ED
:10082000DF938091CE028111C8C00E94DC0200914A
:10083000EC021091ED022091EE023091EF02AB013B
:10084000BC01401B510B620B730B8091EA0290912B
:10085000EB02092E000CAA0BBB0B481759076A07BD
:100860007B0708F4A0C00E94DC026093EC02709346
:10087000ED028093EE029093EF028091CD02811100
:100880004DC0C0E08091E002C81758F4EC2FF0E0B2
:10089000E753FD4F6091CA0287810E940102CF5F3A
:1008A000F1CFE091E102F0E0E753FD4F6091CC021F
:1008B00087850E9401028091E1028F5F883058F5A0
:1008C0008093E102C091E102EC2FF0E0E753FD4F8D
:1008D0006091CB0287850E94010201E010E002C016
:1008E000000F111FCA95E2F7C0E08091E002C8171F
:1008F00008F059C0EC2FF0E0E753FD4F818D90E0F8
:1009000080239123892B29F06091C90287810E945D
:100910000102CF5FEACF1092E102D4CFC8EDD2E05E
:1009200000EE12E06091CC0289910E9401020C1746
:100930001D07C1F7E091E102F0E0E753FD4F609140
:10094000CA0287810E9401028091E1028F5F809339
:10095000E1029091E002891710F01092E102C0913B
:10096000E102D0E0C753DD4F6091C9028F810E9440
:10097000010210E000E06996888190E0002E02C03C
:10098000959587950A94E2F780FF08C06091CB02A5
:10099000F801E753FD4F87850E9401020F5F1F4F4B
:1009A0000830110549F7DF91CF911F910F91FF900A
:1009B000EF90DF90CF90BF9008958091CD0281118C
:1009C00050C009EC12E0D0E0C0E0EE24E394F12C3A
:1009D0006091CB02F80187850E94010267010C2E0D
:1009E00002C0CC0CDD1C0A94E2F7B12C8091E0022D
:1009F000B81688F4EB2DF0E0E753FD4F818D90E0C1
:100A00008C219D21892B29F06091C90287810E9448
:100A10000102B394EBCF8091EA029091EB02CC01FA
:100A200000000197E9F7D12C8091E002D81658F424
:100A3000ED2DF0E0E753FD4F6091CA0287810E94DF
:100A40000102D394F1CF6091CC02F80187850E9416
:100A5000010221960F5F1F4FC830D10509F0B8CFB2
:100A6000A2CFB12C80EEE82E82E0F82E8091E00239
:100A7000B81608F098CFCB2DD0E0C753DD4F60916A
:100A8000C9028F810E94010210E000E06E01F9E1CD
:100A9000CF0ED11CF601808190E0002E02C095950A
:100AA00087950A94E2F780FF08C06091CB02F801B5
:100AB000E753FD4F87850E9401020F5F1F4F0830EB
:100AC000110541F78091EA029091EB02CC01000000
:100AD0000197E9F708ED12E06091CC02F8018191ED
:100AE0008F010E940102E016F106B1F76091CA027F
:100AF0008F810E940102B394B9CF2091C702309137
:100B0000C802232B39F421E0FC018081882361F0A5
:100B100020E00AC0BC018091C3029091C4020E94EF
:100B20003F1421E0892BA1F7822F08950F931F9383
:100B3000CF93DF93EC0188819981009759F02A8146
:100B40003B812617370730F081E0DF91CF911F916D
:100B50000F9108958B016F5F7F4F0E94791300976B
:100B600059F0998388831B830A832C813D81232B31
:100B700059F7FC011082E8CF80E0E7CFCF93DF93F5
:100B8000EC01198218821B821A821D821C8270E07D
:100B900060E00E9496052881398181110FC02115DE
:100BA000310519F0C9010E94F012198218821D82C4
:100BB0001C821B821A82DF91CF9108951D821C82B4
:100BC00069E771E0C901DF91CF910C94481470E09E
:100BD00060E083EC92E00E9496052091C302309180
:100BE000C402811113C02115310519F0C9010E94F9
:100BF000F0121092C4021092C3021092C802109216
:100C0000C7021092C6021092C50208951092C8023F
:100C10001092C70269E771E0C9010C944814EF9281
:100C2000FF920F931F93CF93DF9300D0CDB7DEB722
:100C30008C0169831A82FC01E480F580FFEFEF1AD2
:100C4000FF0AB7010E949605882381F0F8012081F0
:100C5000318184819581BE016F5F7F4F820F931F29
:100C60000E944814F801F582E48281E00F900F9011
:100C7000DF91CF911F910F91FF90EF9008951F92F8
:100C80000F920FB60F9211242F933F934F935F93C0
:100C90006F937F938F939F93AF93BF93EF93FF9344
:100CA00086E292E00E947201FF91EF91BF91AF91B5
:100CB0009F918F917F916F915F914F913F912F9174
:100CC0000F900FBE0F901F9018951F920F920FB6A6
:100CD0000F9211242F938F939F93EF93FF93E091A3
:100CE0003602F09137028081E0913C02F0913D02A2
:100CF00082FD1BC0908180913F028F5F8F73209196
:100D00004002821741F0E0913F02F0E0EA5DFD4FC2
:100D1000958F80933F02FF91EF919F918F912F913B
:100D20000F900FBE0F901F9018958081F4CF1F92E7
:100D30000F920FB60F9211242F933F938F939F938F
:100D4000AF93BF938091B7019091B801A091B90181
:100D5000B091BA013091B6012CE0230F2D3758F530
:100D60000496A11DB11D2093B6018093B701909305
:100D7000B801A093B901B093BA018091BB019091E1
:100D8000BC01A091BD01B091BE010196A11DB11D94
:100D90008093BB019093BC01A093BD01B093BE01B1
:100DA000BF91AF919F918F913F912F910F900FBE67
:100DB0000F901F9018952FE8230F0596A11DB11DC8
:100DC000D2CFE6E2F2E01382128288EE93E0A0E056
:100DD000B0E084839583A683B78389E691E091830D
:100DE000808385EC90E09587848784EC90E09787FA
:100DF000868780EC90E0918B808B81EC90E0938BE8
:100E0000828B82EC90E0958B848B86EC90E0978BC4
:100E1000868B118E128E138E148EE9ECF2E080ED2B
:100E200097E092A381A3178A108E13A214A215A291
:100E300016A21482158283EC92E00C94BE05CF9327
:100E4000DF93CDB7DEB7C658D1090FB6F894DEBF31
:100E50000FBECDBF8091F20080618EBB80E8809391
:100E6000F2009EB39093F2008093610011E0109322
:100E700061009091F2009F799EBB8093F2009EB337
:100E80009093F2009091F2009B7F9EBB8093F200C2
:100E90009EB39093F2008093610083E080936100A1
:100EA000789484B5826084BD84B5816084BD85B545
:100EB000826085BD85B5816085BD80916E00816051
:100EC00080936E00109281008091810082608093F7
:100ED0008100809180008160809380008091B100CA
:100EE00084608093B1008091B00081608093B000F5
:100EF0008091910082608093910080919100816047
:100F00008093910080919000816080939000809107
:100F10007A008B7F80937A0080917A008D7F809316
:100F20007A0080917A00816080937A0080917A00C3
:100F3000806880937A001092C10082E00E94B9001C
:100F400083E00E94B90084E00E94B9008CE00E9416
:100F5000B9008BE00E94B90088EE0E94B90083E1DD
:100F60000E94B9008DE00E94B900E0913602F09134
:100F7000370202E00083E0913202F09133021082E6
:100F8000E0913402F091350283E3808310923E02B7
:100F9000E0913A02F0913B0286E08083E0913802D2
:100FA000F0913902808180618083E0913802F09174
:100FB0003902808188608083E0913802F0913902A3
:100FC000808180688083E0913802F09139028081CD
:100FD0008F7D808360E082E00E94010260E083E018
:100FE0000E94010260E084E00E94010260E08CE067
:100FF0000E94010260E08BE00E94010260E088EE46
:101000000E94010260E083E10E94010260E08DE045
:101010000E94010287E022968FAF229788E02396F4
:101020008FAF2397EEE0F1E0DE01119601900D9273
:101030008A95E1F71092CD021092CE021092CF0263
:101040000093E0021093C9021092CB021092CA02E0
:101050001093CC02FE013196A8EDB2E0CE010996C4
:1010600021912D93E817F907D9F787E08093D002F3
:1010700088E08093D10210E08091E002181790F48C
:10108000812F90E09C0127533D4F7901F901878121
:101090000E94B9006091CA02F70187810E94010293
:1010A0001F5FEACF09EC12E051EDE52E52E0F52E7C
:1010B000F80187850E94B9006091CC02F80187850C
:1010C0000E9401020F5F1F4FE016F10689F740E012
:1010D00060E070E0CB010E940D0380ED97E09093FB
:1010E000EB028093EA021092130210921402109203
:1010F00015021092160210920D0210920E0210921A
:101100000F02109210021092070210920802109221
:10111000090210920A021092FF011092000210922E
:101120000102109202021092190210921A021092F9
:101130001B0210921C0210921F02109220021092A9
:101140002102109222021092EF011092F0011092EF
:10115000F1011092F2010E94E70543E0E42EF12C28
:1011600001E010E030E0C32E30E0D32E86E292E0C2
:101170000E945201892B09F401C286E292E00E948A
:101180003001B82E80932502682F83EC92E00E94F4
:101190000F06F2E7BF12EACF4091C7025091C80292
:1011A0006091C3027091C40286E292E00E94F40052
:1011B00042E050E067E771E086E292E00E94F400CE
:1011C0008AE791E00E947D058823C1F08091230287
:1011D00090912402892B91F40E94010362517D4F6A
:1011E0008F4F9F4F60931F027093200280932102C4
:1011F0009093220210932402009323028EE791E041
:101200000E947D058823C1F080911D0290911E02ED
:10121000892B91F40E9401036C507E4F8F4F9F4F9A
:101220006093190270931A0280931B0290931C0220
:1012300010931E0200931D0282E891E00E947D053A
:101240008823C1F08091170290911802892B91F4A4
:101250000E9401036C507E4F8F4F9F4F609313028B
:101260007093140280931502909316021093180243
:101270000093170286E891E00E947D058823C1F063
:101280008091110290911202892B91F40E94010326
:1012900068517C4F8F4F9F4F60930D0270930E02E9
:1012A00080930F0290931002109312020093110288
:1012B0008AE891E00E947D058823E1F080910B028D
:1012C00090910C02892BB1F40E94010368517C4F6C
:1012D0008F4F9F4F6093070270930802809309021B
:1012E00090930A0210930C0200930B0210930602D3
:1012F000009305028EE891E00E947D058823F1F0BD
:1013000080910B0290910C02892BC1F40E94010381
:1013100068517C4F8F4F9F4F609307027093080274
:101320008093090290930A0210930C0200930B021F
:1013300082E090E0909306028093050282E991E0BA
:101340000E947D058823E1F080910B0290910C02B0
:10135000892BB1F40E94010362517D4F8F4F9F4F43
:1013600060930702709308028093090290930A0227
:1013700010930C0200930B02F0920602E092050219
:1013800086E991E00E947D058823C1F080910302E7
:1013900090910402892B91F40E94010368517C4FC3
:1013A0008F4F9F4F6093FF01709300028093010263
:1013B00090930202109304020093030289E991E0E2
:1013C0000E947D05882321F061E08CE00E940102EB
:1013D0008CE991E00E947D05882321F060E08CE09B
:1013E0000E94010280EA91E00E947D05882321F09D
:1013F00061E08DE00E94010287EA91E00E947D0594
:10140000882321F060E08DE00E9401028FEA91E0E4
:101410000E947D058823C1F08091FD019091FE011D
:10142000892B91F40E94010368517C4F8F4F9F4F8D
:101430006093F9017093FA018093FB019093FC0192
:101440001093FE010093FD01A090C702B090C80266
:10145000A114B10409F05FC022961FAE2297229614
:101460008FAD22978E3609F053C08091F70190918D
:10147000F801892B09F04CC0CE018F579F4F0E9475
:10148000BE0523966FAD2397CE018F579F4F0E94C5
:101490000F0624966FAD2497CE018F579F4F0E9461
:1014A0000F0625966FAD2597CE018F579F4F0E944F
:1014B0000F06CB57DF4FA880B980C558D040A11484
:1014C000B10409F041C01982CE0101960E94780E44
:1014D0006093F3017093F4018093F5019093F6010A
:1014E0000E9401036053784F8F4F9F4F6093EF012D
:1014F0007093F0018093F1019093F201CF57DF4F89
:1015000088819981C158D040009711F00E94F01253
:101510000E94E7052BCE2FE3A216B10418F02FE3AB
:10152000A22EB12C6091C3027091C402A501CE011C
:101530008F5B9F4F0E944F14E1E4F0E0EC0FFD1F22
:10154000EA0DFB1D10828BCF3FE3A316B10418F008
:101550009FE3A92EB12CCF57DF4F68817981C15805
:10156000D040A501CE0101960E944F14E1E0F0E0C9
:10157000EC0FFD1FEA0DFB1D1082A6CF0E94010398
:101580008090EF019090F001A090F101B090F201F5
:10159000681579058A059B0508F069C08090F301FC
:1015A0009090F401A090F501B090F60120E030E0B9
:1015B00040E251E4C501B4010E94491287FD36C0E2
:1015C00020E030E0A901C501B4010E94491220E0E9
:1015D00030E040E05FE387FF04C020E030E040E01F
:1015E0005FEBC501B4010E94A7110E94131240E0F5
:1015F0000E940D030E9408040E9401038090F901DB
:101600009090FA01A090FB01B090FC01681579055B
:101610008A059B0508F0BAC04091E002E2EEF2E0D4
:1016200080E0481781F111928F5FFBCF20E030E01E
:1016300040E251E4C501B4010E9453104B015C012A
:1016400020E030E0A9010E94491220E030E040E0B3
:101650005FE387FF04C020E030E040E05FEBC501BE
:10166000B4010E94A7110E94131241E0C1CF8091E2
:10167000F7019091F801892B09F4BECF1092F8017F
:101680001092F701B9CF20E0A0E030E050E0B0E4E4
:1016900080E8B82E822F90E0BA016A0F711D86177C
:1016A00097070CF057C0632F70E0FB01ED54FE4F1D
:1016B000E081EE2309F44EC0F0EDFE0FFA3068F43D
:1016C00087539D4F0E2E000CFF0BEA51FF4F608198
:1016D000FC01618F3F5F2F5FDDCFFFEBFE0FFA3123
:1016E00040F487539D4F0E2E000CFF0BE152FF4F2D
:1016F000EECFFFE9FE0FFA3140F487539D4F0E2ED7
:10170000000CFF0BE154FF4FE2CFE03229F4875386
:101710009D4FFC01118EDECFEE32B9F4332381F000
:101720006E547E4FFB0160816E3251F02150E22FEA
:10173000F0E0E753FD4F818D8068818FAF5FCACFA6
:1017400087539D4FFC01B18EC5CF87539D4FFC0140
:10175000B18FC0CF0E94080480E590E00E94620231
:101760008091F7019091F801892B19F58091FD0185
:101770009091FE01892BE9F49091E002E2EEF2E013
:1017800080E0981791F011928F5FFBCF8091FD015F
:101790009091FE01892B21F390E080E00E9462028B
:1017A0001092FE011092FD01DBCF0E9408040E94FE
:1017B00008040E94010380901F0290902002A090D4
:1017C0002102B0902202681579058A059B0508F070
:1017D000D3C18091E70181110DC00E940103609384
:1017E000E3017093E4018093E5019093E60181E0C9
:1017F0008093E7018091060190910701892B09F4FC
:10180000B4C161E088EE0E94010280E590E00E9490
:1018100062020E9401038090E3019090E401A09095
:10182000E501B090E6019B01AC01281939094A098C
:101830005B0949015A013EE783169104A104B104F2
:10184000B4F06093E3017093E4018093E501909319
:10185000E60181E090E02091060130910701232B01
:1018600011F090E080E090930701809306010E94C0
:1018700001038090190290901A02A0901B02B09070
:101880001C02681579058A059B0508F08CC18091BA
:10189000DB0181110DC00E9401036093D701709399
:1018A000D8018093D9019093DA0181E08093DB0124
:1018B0008091040190910501892B09F46DC161E0CB
:1018C00083E10E94010280E590E00E9462020E9492
:1018D00001038090D7019090D801A090D901B090D9
:1018E000DA019B01AC01281939094A095B09490150
:1018F0005A013EE783169104A104B104B4F0609349
:10190000D7017093D8018093D9019093DA0181E0D7
:1019100090E02091040130910501232B11F090E01B
:1019200080E090930501809304010E940103809060
:10193000130290901402A0901502B0901602681540
:1019400079058A059B0508F03EC161E082E00E94AE
:10195000010261E083E00E9401020E940103809085
:101960000D0290900E02A0900F02B0901002681528
:1019700079058A059B0508F05AC18091CF01811134
:101980000DC00E9401036093CB017093CC01809342
:10199000CD019093CE0181E08093CF01A0900B0206
:1019A000B0900C028091020190910301892B09F4FF
:1019B0002EC161E082E00E94010261E083E00E94AA
:1019C000010280E590E0AB2809F42EC10E940103DA
:1019D0008090CB019090CC01A090CD01B090CE0131
:1019E0009B01AC01281939094A095B0949015A01CF
:1019F0003DE783169104A104B104B4F06093CB01D8
:101A00007093CC018093CD019093CE0181E090E062
:101A10002091020130910301232B11F090E080E02E
:101A200090930301809302010E94010380900702BA
:101A300090900802A0900902B0900A0268157905FA
:101A40008A059B0508F011C18091C30181110DC069
:101A50000E9401036093BF017093C0018093C10194
:101A60009093C20181E08093C30180910001909125
:101A70000101892B09F4F3C080E590E00E94620225
:101A800061E084E00E9401020E940103AB01BC01FD
:101A90008091BF019091C001A091C101B091C2019C
:101AA0004A015B01881A990AAA0ABB0A2091050219
:101AB00030910602EDE7E29FC001E39F900D1124F3
:101AC000092E000CAA0BBB0B88169906AA06BB06AA
:101AD000B4F04093BF015093C0016093C101709373
:101AE000C20181E090E02091000130910101232B9F
:101AF00011F090E080E090930101809300010E943A
:101B000001038090FF0190900002A0900102B0902C
:101B10000202681579058A059B0508F0BAC061E0E4
:101B20008BE00E94010280910B0290910C02892BA4
:101B300081F48091110290911202892B51F48091CD
:101B4000170290911802892B21F480E590E00E9401
:101B50006202C114D10409F409CB0E945E018823FA
:101B600009F4FECA0E940000F8CA60E088EE0E94F4
:101B7000010290E080E04BCE8091230290912402FC
:101B8000892B09F474CE60E088EE0E940102109265
:101B90002402109223026BCE60E083E10E940102D6
:101BA00090E080E092CE80911D0290911E02892BE0
:101BB00009F4BBCE60E083E10E94010210921E0294
:101BC00010921D02B2CE8091170290911802892BBB
:101BD00009F4C3CE60E082E00E94010260E083E08D
:101BE0000E94010280910B0290910C02892B51F40A
:101BF0008091110290911202892B21F490E080E0F3
:101C00000E9462021092180210921702A6CE60E0A3
:101C100082E00E94010260E083E00E940102AB28A2
:101C200009F0D4CE90E080E00E946202CFCE809195
:101C3000110290911202892B09F4F6CE60E082E045
:101C40000E94010260E083E00E94010290E080E0D7
:101C50000E9462021092120210921102E5CE90E0F0
:101C600080E00E94620260E00CCF80910B029091B4
:101C70000C02892B09F443CF60E084E00E9401024A
:101C800090E080E00E94620210920C0210920B021F
:101C900036CF8091030290910402892B09F459CF29
:101CA00060E08BE00E94010280910B0290910C0297
:101CB000892B81F48091110290911202892B51F4A9
:101CC0008091170290911802892B21F490E080E016
:101CD0000E94620210920402109203023ACF809195
:101CE000C3029091C402009711F00C94F012089571
:101CF000662777270C947C0EB0E0A0E0E2E8FEE0D7
:101D00000C9444115C017B016115710519F0DB0134
:101D10008D939C9385010F5F1F4FF501D0818D2F0F
:101D200090E00E94CC0F6C01892BB9F5DD32B9F53A
:101D30000F5F1F4FD5011196DC91C1E05801F1E012
:101D4000AF1AB10843E050E060E870E0C5010E94BE
:101D5000D50F892B69F5680182E0C80ED11C45E0DA
:101D600050E06BE770E0C6010E94D50F892B21F48B
:101D7000680197E0C90ED11CE114F10419F0D701F4
:101D8000CD92DC9260E070E080E89FEFC111FFC06F
:101D900060E070E080E89FE7FAC05801BBCFDB321B
:101DA00029F485010E5F1F4FF501D181C0E0C6CF38
:101DB00043E050E068E770E0C5010E94D50F892B31
:101DC000E9F0F80110E000E020E030E0A9015F0157
:101DD000B0ED8B2E8D0E89E08815C8F19C2E68948D
:101DE00091F88C2F8870C2FF16C0811102C00F5F5E
:101DF0001F4F3196D501DC91C92DE9CFE114F104D3
:101E000029F00E5F1F4FF7011183008360E070E03F
:101E100080EC9FE7BCC0882311F001501109A5E0B8
:101E2000B0E00E9433119B01AC01220F331F441F0D
:101E3000551F280D311D411D511D283999E93907BC
:101E4000490799E15907A8F2C6609C2ED2CFAEEFA0
:101E50008A1206C0C3FD3CC09C2E689493F8C9CF7B
:101E6000DF7DD534A9F580818D3239F4C061DF0181
:101E70001296818162E070E006C0DF018B32C1F30F
:101E8000119661E070E080535D01A61AB70A8A30AE
:101E9000F8F4E0E8CE16ECE0DE065CF4B601660F7E
:101EA000771F660F771FC60ED71ECC0CDD1CC80E21
:101EB000D11C5D01FFEFAF1ABF0A8C9180538A30AD
:101EC000A8F1C4FF03C0D194C194D1080C0D1D1D0D
:101ED000C1FF09C0E114F10431F081E0A81AB10892
:101EE000D701AD92BC92CA01B9010E94F20FC37032
:101EF000C33009F490584B015C0120E030E0A901A7
:101F00000E94ED0F882309F440C0CFEAD0E017FF0C
:101F100005C0119501951109C7E9D0E06E01B8E13E
:101F2000CB1AD10880E2E82EF12C0FC0D501B1CF39
:101F3000FE0125913591459154910E191F09C50156
:101F4000B4010E9453104B015C01D501C4010E1570
:101F50001F0574F72497F594E794CC16DD06A9F7CE
:101F60008A2F880F8B2F881F8F3F49F020E030E0A9
:101F7000A901C501B4010E94ED0F811106C082E2E2
:101F800090E09093F1028093F002C501B401CDB7C7
:101F9000DEB7ECE00C94601191110C94C01080320B
:101FA00019F089508550C8F70895FB01DC014150B4
:101FB000504088F08D9181341CF08B350CF4805E9C
:101FC000659161341CF06B350CF4605E861B611109
:101FD00071F3990B0895881BFCCF0E942F1008F411
:101FE00081E00895E89409C097FB3EF490958095B0
:101FF000709561957F4F8F4F9F4F9923A9F0F92FCF
:1020000096E9BB279395F695879577956795B7954C
:10201000F111F8CFFAF4BB0F11F460FF1BC06F5F32
:102020007F4F8F4F9F4F16C0882311F096E911C044
:10203000772321F09EE8872F762F05C0662371F065
:1020400096E8862F70E060E02AF09A95660F771F79
:10205000881FDAF7880F9695879597F90895990F55
:102060000008550FAA0BE0E8FEEF16161706E80762
:10207000F907C0F012161306E407F50798F0621B83
:10208000730B840B950B39F40A2661F0232B242B58
:10209000252B21F408950A2609F4A140A6958FEF77
:1020A000811D811D08950E9466100C94DA100E9413
:1020B000CC1038F00E94D31020F0952311F00C942E
:1020C000C3100C94C91011240C940E110E94EB1033
:1020D00070F3959FC1F3950F50E0551F629FF0017B
:1020E000729FBB27F00DB11D639FAA27F00DB11D94
:1020F000AA1F649F6627B00DA11D661F829F22271D
:10210000B00DA11D621F739FB00DA11D621F839FA3
:10211000A00D611D221F749F3327A00D611D231F79
:10212000849F600D211D822F762F6A2F11249F57C7
:1021300050409AF0F1F088234AF0EE0FFF1FBB1FCA
:10214000661F771F881F91505040A9F79E3F510589
:1021500080F00C94C3100C940E115F3FE4F3983E92
:10216000D4F3869577956795B795F795E7959F5F33
:10217000C1F7FE2B880F911D9695879597F90895C5
:1021800099278827089597F99F6780E870E060E0B5
:1021900008959FEF80EC089500240A941616170600
:1021A00018060906089500240A9412161306140648
:1021B00005060895092E0394000C11F4882352F0AB
:1021C000BB0F40F4BF2B11F460FF04C06F5F7F4F63
:1021D0008F4F9F4F089557FD9058440F551F59F04A
:1021E0005F3F71F04795880F97FB991F61F09F3F04
:1021F00079F087950895121613061406551FF2CF2D
:102200004695F1DF08C0161617061806991FF1CF7C
:1022100086957105610508940895E894BB276627A3
:102220007727CB0197F90895052E97FB1EF40094AC
:102230000E942B1157FD07D00E94751107FC03D097
:102240004EF40C942B1150954095309521953F4FAD
:102250004F4F5F4F089590958095709561957F4F92
:102260008F4F9F4F08950E949711A59F900DB49F87
:10227000900DA49F800D911D112408952F923F92DF
:102280004F925F926F927F928F929F92AF92BF9286
:10229000CF92DF92EF92FF920F931F93CF93DF9332
:1022A000CDB7DEB7CA1BDB0B0FB6F894DEBF0FBE8F
:1022B000CDBF09942A88398848885F846E847D84DC
:1022C0008C849B84AA84B984C884DF80EE80FD80DE
:1022D0000C811B81AA81B981CE0FD11D0FB6F89454
:1022E000DEBF0FBECDBFED010895A1E21A2EAA1BDD
:1022F000BB1BFD010DC0AA1FBB1FEE1FFF1FA217B6
:10230000B307E407F50720F0A21BB30BE40BF50BB2
:10231000661F771F881F991F1A9469F7609570953B
:10232000809590959B01AC01BD01CF010895A29FBE
:10233000B001B39FC001A39F700D811D1124911D99
:10234000B29F700D811D1124911D08955058BB2717
:10235000AA270E94BE110C94DA100E94CC1038F00B
:102360000E94D31020F039F49F3F19F426F40C9406
:10237000C9100EF4E095E7FB0C94C310E92F0E94FE
:10238000EB1058F3BA17620773078407950720F01C
:1023900079F4A6F50C940D110EF4E0950B2EBA2FDE
:1023A000A02D0B01B90190010C01CA01A00111245B
:1023B000FF27591B99F0593F50F4503E68F11A1607
:1023C000F040A22F232F342F4427585FF3CF469598
:1023D00037952795A795F0405395C9F77EF41F16BA
:1023E000BA0B620B730B840BBAF09150A1F0FF0F84
:1023F000BB1F661F771F881FC2F70EC0BA0F621F70
:10240000731F841F48F4879577956795B795F7955F
:102410009E3F08F0B0CF9395880F08F09927EE0FF4
:102420009795879508950E941A126894B1110C949B
:102430000E1108950E94F31088F09F5798F0B92F5D
:102440009927B751B0F0E1F0660F771F881F991FE9
:102450001AF0BA95C9F714C0B13091F00E940D116D
:10246000B1E008950C940D11672F782F8827B85F7D
:1024700039F0B93FCCF3869577956795B395D9F741
:102480003EF490958095709561957F4F8F4F9F4F4B
:1024900008950E942F1008F48FEF0895EE0FFF1F8C
:1024A0000590F491E02D09940F931F93CF93DF9340
:1024B0008230910510F482E090E0E091F402F09116
:1024C000F50230E020E0B0E0A0E0309799F421156B
:1024D000310509F44AC0281B390B24303105D8F5E1
:1024E0008A819B816115710589F1FB019383828348
:1024F000FE0111C0408151810281138148175907A3
:10250000E0F04817590799F4109761F012960C9370
:10251000129713961C933296CF01DF91CF911F91A2
:102520000F9108950093F4021093F502F4CF211552
:10253000310551F04217530738F0A901DB019A0128
:10254000BD01DF01F801C1CFEF01F9CF9093F50292
:102550008093F402CDCFFE01E20FF31F819391939C
:102560002250310939832883D7CF2091F20230914C
:10257000F302232B41F420910A0130910B01309397
:10258000F3022093F20220910801309109012115F4
:10259000310541F42DB73EB740910C0150910D012A
:1025A000241B350BE091F202F091F302E217F307DE
:1025B000A0F42E1B3F0B2817390778F0AC014E5FB3
:1025C0005F4F2417350748F04E0F5F1F5093F302FB
:1025D0004093F202819391939FCFF0E0E0E09CCF93
:1025E000CF93DF930097E9F0FC01329713821282B8
:1025F000A091F402B091F502ED0130E020E01097D7
:10260000A1F420813181820F931F2091F202309139
:10261000F3022817390709F061C0F093F302E09341
:10262000F202DF91CF910895EA01CE17DF07E8F5B6
:102630004A815B819E0141155105B1F7E901FB8398
:10264000EA8349915991C40FD51FEC17FD0761F436
:10265000808191810296840F951FE9019983888377
:10266000828193819B838A83F0E0E0E012968D91D2
:102670009C9113970097B9F52D913C911197CD013D
:102680000296820F931F2091F2023091F3022817D5
:10269000390739F6309751F51092F5021092F4028D
:1026A000B093F302A093F202BCCFD383C2834081E4
:1026B0005181840F951FC817D90761F44E5F5F4F92
:1026C00088819981480F591F518340838A819B815A
:1026D000938382832115310509F0B0CFF093F50281
:1026E000E093F4029ECFFD01DC01C0CF1382128281
:1026F000D7CFB0E0A0E0EFE7F3E10C9440118C01FC
:10270000009751F4CB010E9454128C01C801CDB73F
:10271000DEB7E0E10C945C11FC01E60FF71F9C01B1
:1027200022503109E217F30708F49DC0D901CD9179
:10273000DC911197C617D70798F0C530D10530F353
:10274000CE0104978617970708F3C61BD70B22976D
:10275000C193D1936D937C93CF010E94F012D6CF99
:102760005B01AC1ABD0A4C018C0E9D1EA091F402B7
:10277000B091F502512C412CF12CE12C109731F540
:102780008091F2029091F3028815990509F05CC0DE
:102790004616570608F058C080910801909109012B
:1027A000009741F48DB79EB740910C0150910D01F7
:1027B000841B950BE817F90708F055C0F093F30256
:1027C000E093F202F90171836083A0CF8D919C9117
:1027D000119712966C90129713967C901397A815E8
:1027E000B90559F56C0142E0C40ED11CCA14DB04D2
:1027F00020F1AC014A195B09DA011296159780F0B5
:102800006282738251834083D9016D937C93E1147A
:10281000F10471F0D7011396FC93EE93129776CFE3
:1028200022968C0F9D1FF90191838083F301EFCFD6
:10283000F093F502E093F40269CF4816590608F4C4
:102840002C017D01D3019ACFCB010E9454127C014F
:10285000009749F0AE01B8010E943614C8010E94E9
:10286000F012870153CF10E000E050CFFB01DC01F4
:1028700002C001900D9241505040D8F70895FB01DD
:10288000DC018D91019080190110D9F3990B089505
:10289000FB01DC0101900D920020E1F70895FB019E
:1028A000DC014150504048F001900D920020C9F7E2
:1028B00001C01D9241505040E0F7089510E0CEE86D
:1028C000D0E004C0FE010E944E122196CF38D107FD
:0628D000C9F7F894FFCFE8
:1028D60001000100010001000000F602800005066B
:1028E600120F10090E113F065B4F666D7D077F6F55
:1028F600777C395E79713D76060E763800543F73E3
:1029060067506D783E3E00766E5B004080010000A9
:10291600000A00000064000000E803000010270021
:1029260000A086010040420F008096980000E1F565
:102936000500CA9A3B000000009401F4002101E161
:10294600015201300144010D0A00746C7200676F78
:1029560072006C6172006C707200633172006332D7
:1029660072006333720073720067720067667200EA
:102976006C74656F6E72006C74656F666672006962
:06298600647200696400A8
:00000001FF
